{
  "contractName": "Making_token",
  "abi": [
    {
      "inputs": [],
      "stateMutability": "nonpayable",
      "type": "constructor"
    },
    {
      "anonymous": false,
      "inputs": [
        {
          "indexed": true,
          "internalType": "address",
          "name": "_owner",
          "type": "address"
        },
        {
          "indexed": true,
          "internalType": "address",
          "name": "_spender",
          "type": "address"
        },
        {
          "indexed": false,
          "internalType": "uint256",
          "name": "_value",
          "type": "uint256"
        }
      ],
      "name": "Approval",
      "type": "event"
    },
    {
      "anonymous": false,
      "inputs": [
        {
          "indexed": true,
          "internalType": "address",
          "name": "oldOwner",
          "type": "address"
        },
        {
          "indexed": true,
          "internalType": "address",
          "name": "newOwner",
          "type": "address"
        }
      ],
      "name": "OwnerSet",
      "type": "event"
    },
    {
      "anonymous": false,
      "inputs": [
        {
          "indexed": true,
          "internalType": "address",
          "name": "_from",
          "type": "address"
        },
        {
          "indexed": true,
          "internalType": "address",
          "name": "_to",
          "type": "address"
        },
        {
          "indexed": false,
          "internalType": "uint256",
          "name": "_value",
          "type": "uint256"
        }
      ],
      "name": "Transfer",
      "type": "event"
    },
    {
      "anonymous": false,
      "inputs": [
        {
          "indexed": false,
          "internalType": "uint256",
          "name": "val",
          "type": "uint256"
        }
      ],
      "name": "bal",
      "type": "event"
    },
    {
      "inputs": [],
      "name": "_totalSupply",
      "outputs": [
        {
          "internalType": "uint256",
          "name": "",
          "type": "uint256"
        }
      ],
      "stateMutability": "view",
      "type": "function"
    },
    {
      "inputs": [],
      "name": "name",
      "outputs": [
        {
          "internalType": "string",
          "name": "",
          "type": "string"
        }
      ],
      "stateMutability": "view",
      "type": "function"
    },
    {
      "inputs": [],
      "name": "symbol",
      "outputs": [
        {
          "internalType": "string",
          "name": "",
          "type": "string"
        }
      ],
      "stateMutability": "view",
      "type": "function"
    },
    {
      "inputs": [],
      "name": "decimals",
      "outputs": [
        {
          "internalType": "uint8",
          "name": "",
          "type": "uint8"
        }
      ],
      "stateMutability": "view",
      "type": "function"
    },
    {
      "inputs": [],
      "name": "owner",
      "outputs": [
        {
          "internalType": "address",
          "name": "",
          "type": "address"
        }
      ],
      "stateMutability": "view",
      "type": "function"
    },
    {
      "inputs": [],
      "name": "totalSupply",
      "outputs": [
        {
          "internalType": "uint256",
          "name": "",
          "type": "uint256"
        }
      ],
      "stateMutability": "view",
      "type": "function"
    },
    {
      "inputs": [
        {
          "internalType": "address",
          "name": "_check_address",
          "type": "address"
        }
      ],
      "name": "balanceOf",
      "outputs": [
        {
          "internalType": "uint256",
          "name": "balance",
          "type": "uint256"
        }
      ],
      "stateMutability": "nonpayable",
      "type": "function"
    },
    {
      "inputs": [
        {
          "internalType": "address",
          "name": "_from",
          "type": "address"
        },
        {
          "internalType": "address",
          "name": "_to",
          "type": "address"
        },
        {
          "internalType": "uint256",
          "name": "_value",
          "type": "uint256"
        }
      ],
      "name": "transfer",
      "outputs": [
        {
          "internalType": "uint256",
          "name": "amount",
          "type": "uint256"
        }
      ],
      "stateMutability": "nonpayable",
      "type": "function"
    },
    {
      "inputs": [
        {
          "internalType": "address",
          "name": "_from",
          "type": "address"
        },
        {
          "internalType": "address",
          "name": "_to",
          "type": "address"
        },
        {
          "internalType": "uint256",
          "name": "_value",
          "type": "uint256"
        }
      ],
      "name": "transferFrom",
      "outputs": [
        {
          "internalType": "bool",
          "name": "success",
          "type": "bool"
        }
      ],
      "stateMutability": "nonpayable",
      "type": "function"
    },
    {
      "inputs": [
        {
          "internalType": "address",
          "name": "add",
          "type": "address"
        }
      ],
      "name": "check_balance",
      "outputs": [
        {
          "internalType": "uint256",
          "name": "",
          "type": "uint256"
        }
      ],
      "stateMutability": "view",
      "type": "function"
    },
    {
      "inputs": [
        {
          "internalType": "address",
          "name": "_spender",
          "type": "address"
        },
        {
          "internalType": "uint256",
          "name": "_value",
          "type": "uint256"
        }
      ],
      "name": "approve",
      "outputs": [
        {
          "internalType": "bool",
          "name": "success",
          "type": "bool"
        }
      ],
      "stateMutability": "nonpayable",
      "type": "function"
    },
    {
      "inputs": [
        {
          "internalType": "address",
          "name": "_approvedBy",
          "type": "address"
        },
        {
          "internalType": "address",
          "name": "_spender",
          "type": "address"
        }
      ],
      "name": "allowance",
      "outputs": [
        {
          "internalType": "uint256",
          "name": "remaining",
          "type": "uint256"
        }
      ],
      "stateMutability": "view",
      "type": "function"
    },
    {
      "inputs": [
        {
          "internalType": "uint256",
          "name": "tokens",
          "type": "uint256"
        }
      ],
      "name": "mint",
      "outputs": [
        {
          "internalType": "uint256",
          "name": "",
          "type": "uint256"
        }
      ],
      "stateMutability": "nonpayable",
      "type": "function"
    },
    {
      "inputs": [
        {
          "internalType": "uint256",
          "name": "tokens",
          "type": "uint256"
        }
      ],
      "name": "burn",
      "outputs": [
        {
          "internalType": "bool",
          "name": "success",
          "type": "bool"
        }
      ],
      "stateMutability": "nonpayable",
      "type": "function"
    },
    {
      "inputs": [
        {
          "internalType": "address",
          "name": "newOwner",
          "type": "address"
        }
      ],
      "name": "changeOwner",
      "outputs": [
        {
          "internalType": "bool",
          "name": "sucess",
          "type": "bool"
        }
      ],
      "stateMutability": "nonpayable",
      "type": "function"
    }
  ],
  "bytecode": "0x608060405233600460006101000a81548173ffffffffffffffffffffffffffffffffffffffff021916908373ffffffffffffffffffffffffffffffffffffffff1602179055503480156200005257600080fd5b506040518060400160405280600481526020017f726976680000000000000000000000000000000000000000000000000000000081525060009080519060200190620000a092919062000160565b50600a600160006101000a81548160ff021916908360ff1602179055506040518060400160405280600381526020017f5258420000000000000000000000000000000000000000000000000000000000815250600290805190602001906200010a92919062000160565b5061c350600381905550600354600560003373ffffffffffffffffffffffffffffffffffffffff1673ffffffffffffffffffffffffffffffffffffffff1681526020019081526020016000208190555062000275565b8280546200016e9062000210565b90600052602060002090601f016020900481019282620001925760008555620001de565b82601f10620001ad57805160ff1916838001178555620001de565b82800160010185558215620001de579182015b82811115620001dd578251825591602001919060010190620001c0565b5b509050620001ed9190620001f1565b5090565b5b808211156200020c576000816000905550600101620001f2565b5090565b600060028204905060018216806200022957607f821691505b6020821081141562000240576200023f62000246565b5b50919050565b7f4e487b7100000000000000000000000000000000000000000000000000000000600052602260045260246000fd5b61181080620002856000396000f3fe608060405234801561001057600080fd5b50600436106100f55760003560e01c806342966c6811610097578063a0712d6811610066578063a0712d681461029e578063a6f9dae1146102ce578063beabacc8146102fe578063dd62ed3e1461032e576100f5565b806342966c681461020257806370a08231146102325780638da5cb5b1461026257806395d89b4114610280576100f5565b806323b872dd116100d357806323b872dd146101665780632aa3e7d714610196578063313ce567146101c65780633eaaf86b146101e4576100f5565b806306fdde03146100fa578063095ea7b31461011857806318160ddd14610148575b600080fd5b61010261035e565b60405161010f919061145c565b60405180910390f35b610132600480360381019061012d91906112b8565b6103f0565b60405161013f9190611441565b60405180910390f35b610150610572565b60405161015d91906114fe565b60405180910390f35b610180600480360381019061017b9190611265565b61057c565b60405161018d9190611441565b60405180910390f35b6101b060048036038101906101ab91906111f8565b6108fe565b6040516101bd91906114fe565b60405180910390f35b6101ce6109d7565b6040516101db9190611519565b60405180910390f35b6101ec6109ee565b6040516101f991906114fe565b60405180910390f35b61021c600480360381019061021791906112f8565b6109f4565b6040516102299190611441565b60405180910390f35b61024c600480360381019061024791906111f8565b610b49565b60405161025991906114fe565b60405180910390f35b61026a610c08565b6040516102779190611426565b60405180910390f35b610288610c32565b604051610295919061145c565b60405180910390f35b6102b860048036038101906102b391906112f8565b610cc4565b6040516102c591906114fe565b60405180910390f35b6102e860048036038101906102e391906111f8565b610e50565b6040516102f59190611441565b60405180910390f35b61031860048036038101906103139190611265565b610fa8565b60405161032591906114fe565b60405180910390f35b61034860048036038101906103439190611225565b611147565b60405161035591906114fe565b60405180910390f35b60606000805461036d90611662565b80601f016020809104026020016040519081016040528092919081815260200182805461039990611662565b80156103e65780601f106103bb576101008083540402835291602001916103e6565b820191906000526020600020905b8154815290600101906020018083116103c957829003601f168201915b5050505050905090565b6000600460009054906101000a900473ffffffffffffffffffffffffffffffffffffffff1673ffffffffffffffffffffffffffffffffffffffff163373ffffffffffffffffffffffffffffffffffffffff1614610482576040517f08c379a0000000000000000000000000000000000000000000000000000000008152600401610479906114be565b60405180910390fd5b81600660003373ffffffffffffffffffffffffffffffffffffffff1673ffffffffffffffffffffffffffffffffffffffff16815260200190815260200160002060008573ffffffffffffffffffffffffffffffffffffffff1673ffffffffffffffffffffffffffffffffffffffff168152602001908152602001600020819055508273ffffffffffffffffffffffffffffffffffffffff163373ffffffffffffffffffffffffffffffffffffffff167f8c5be1e5ebec7d5bd14f71427d1e84f3dd0314c0f7b2291e5b200ac8c7c3b9258460405161056091906114fe565b60405180910390a36001905092915050565b6000600354905090565b6000600460009054906101000a900473ffffffffffffffffffffffffffffffffffffffff1673ffffffffffffffffffffffffffffffffffffffff163373ffffffffffffffffffffffffffffffffffffffff161461060e576040517f08c379a0000000000000000000000000000000000000000000000000000000008152600401610605906114be565b60405180910390fd5b600660008573ffffffffffffffffffffffffffffffffffffffff1673ffffffffffffffffffffffffffffffffffffffff16815260200190815260200160002060008473ffffffffffffffffffffffffffffffffffffffff1673ffffffffffffffffffffffffffffffffffffffff168152602001908152602001600020548211156106cd576040517f08c379a00000000000000000000000000000000000000000000000000000000081526004016106c49061149e565b60405180910390fd5b600560008573ffffffffffffffffffffffffffffffffffffffff1673ffffffffffffffffffffffffffffffffffffffff1681526020019081526020016000205482111561074f576040517f08c379a00000000000000000000000000000000000000000000000000000000081526004016107469061147e565b60405180910390fd5b81600660008673ffffffffffffffffffffffffffffffffffffffff1673ffffffffffffffffffffffffffffffffffffffff16815260200190815260200160002060008573ffffffffffffffffffffffffffffffffffffffff1673ffffffffffffffffffffffffffffffffffffffff16815260200190815260200160002060008282546107db91906115a6565b9250508190555081600560008573ffffffffffffffffffffffffffffffffffffffff1673ffffffffffffffffffffffffffffffffffffffff16815260200190815260200160002060008282546108319190611550565b9250508190555081600560008673ffffffffffffffffffffffffffffffffffffffff1673ffffffffffffffffffffffffffffffffffffffff168152602001908152602001600020600082825461088791906115a6565b925050819055508273ffffffffffffffffffffffffffffffffffffffff168473ffffffffffffffffffffffffffffffffffffffff167fddf252ad1be2c89b69c2b068fc378daa952ba7f163c4a11628f55a4df523b3ef846040516108eb91906114fe565b60405180910390a3600190509392505050565b6000600460009054906101000a900473ffffffffffffffffffffffffffffffffffffffff1673ffffffffffffffffffffffffffffffffffffffff163373ffffffffffffffffffffffffffffffffffffffff1614610990576040517f08c379a0000000000000000000000000000000000000000000000000000000008152600401610987906114be565b60405180910390fd5b600560008373ffffffffffffffffffffffffffffffffffffffff1673ffffffffffffffffffffffffffffffffffffffff168152602001908152602001600020549050919050565b6000600160009054906101000a900460ff16905090565b60035481565b6000600460009054906101000a900473ffffffffffffffffffffffffffffffffffffffff1673ffffffffffffffffffffffffffffffffffffffff163373ffffffffffffffffffffffffffffffffffffffff1614610a86576040517f08c379a0000000000000000000000000000000000000000000000000000000008152600401610a7d906114be565b60405180910390fd5b81610a9033610b49565b1015610ad1576040517f08c379a0000000000000000000000000000000000000000000000000000000008152600401610ac8906114de565b60405180910390fd5b8160036000828254610ae391906115a6565b9250508190555081600560003373ffffffffffffffffffffffffffffffffffffffff1673ffffffffffffffffffffffffffffffffffffffff1681526020019081526020016000206000828254610b3991906115a6565b9250508190555060019050919050565b60007f08c3e05c224ebb0c44cd290636a7545ef9c2f1b02e8eed14803efb1c66c028c5600560008473ffffffffffffffffffffffffffffffffffffffff1673ffffffffffffffffffffffffffffffffffffffff16815260200190815260200160002054604051610bb991906114fe565b60405180910390a1600560008373ffffffffffffffffffffffffffffffffffffffff1673ffffffffffffffffffffffffffffffffffffffff168152602001908152602001600020549050919050565b6000600460009054906101000a900473ffffffffffffffffffffffffffffffffffffffff16905090565b606060028054610c4190611662565b80601f0160208091040260200160405190810160405280929190818152602001828054610c6d90611662565b8015610cba5780601f10610c8f57610100808354040283529160200191610cba565b820191906000526020600020905b815481529060010190602001808311610c9d57829003601f168201915b5050505050905090565b6000600460009054906101000a900473ffffffffffffffffffffffffffffffffffffffff1673ffffffffffffffffffffffffffffffffffffffff163373ffffffffffffffffffffffffffffffffffffffff1614610d56576040517f08c379a0000000000000000000000000000000000000000000000000000000008152600401610d4d906114be565b60405180910390fd5b8160036000828254610d689190611550565b925050819055508160056000600460009054906101000a900473ffffffffffffffffffffffffffffffffffffffff1673ffffffffffffffffffffffffffffffffffffffff1673ffffffffffffffffffffffffffffffffffffffff1681526020019081526020016000206000828254610de09190611550565b9250508190555060056000600460009054906101000a900473ffffffffffffffffffffffffffffffffffffffff1673ffffffffffffffffffffffffffffffffffffffff1673ffffffffffffffffffffffffffffffffffffffff168152602001908152602001600020549050919050565b6000600460009054906101000a900473ffffffffffffffffffffffffffffffffffffffff1673ffffffffffffffffffffffffffffffffffffffff163373ffffffffffffffffffffffffffffffffffffffff1614610ee2576040517f08c379a0000000000000000000000000000000000000000000000000000000008152600401610ed9906114be565b60405180910390fd5b81600460006101000a81548173ffffffffffffffffffffffffffffffffffffffff021916908373ffffffffffffffffffffffffffffffffffffffff1602179055508173ffffffffffffffffffffffffffffffffffffffff16600460009054906101000a900473ffffffffffffffffffffffffffffffffffffffff1673ffffffffffffffffffffffffffffffffffffffff167f342827c97908e5e2f71151c08502a66d44b6f758e3ac2f1de95f02eb95f0a73560405160405180910390a360019050919050565b6000600560008573ffffffffffffffffffffffffffffffffffffffff1673ffffffffffffffffffffffffffffffffffffffff1681526020019081526020016000205482111561102c576040517f08c379a00000000000000000000000000000000000000000000000000000000081526004016110239061147e565b60405180910390fd5b81600560008673ffffffffffffffffffffffffffffffffffffffff1673ffffffffffffffffffffffffffffffffffffffff168152602001908152602001600020600082825461107b91906115a6565b9250508190555081600560008573ffffffffffffffffffffffffffffffffffffffff1673ffffffffffffffffffffffffffffffffffffffff16815260200190815260200160002060008282546110d19190611550565b925050819055508273ffffffffffffffffffffffffffffffffffffffff168473ffffffffffffffffffffffffffffffffffffffff167fddf252ad1be2c89b69c2b068fc378daa952ba7f163c4a11628f55a4df523b3ef8460405161113591906114fe565b60405180910390a38190509392505050565b6000600660008473ffffffffffffffffffffffffffffffffffffffff1673ffffffffffffffffffffffffffffffffffffffff16815260200190815260200160002060008373ffffffffffffffffffffffffffffffffffffffff1673ffffffffffffffffffffffffffffffffffffffff16815260200190815260200160002054905092915050565b6000813590506111dd816117ac565b92915050565b6000813590506111f2816117c3565b92915050565b60006020828403121561120e5761120d6116f2565b5b600061121c848285016111ce565b91505092915050565b6000806040838503121561123c5761123b6116f2565b5b600061124a858286016111ce565b925050602061125b858286016111ce565b9150509250929050565b60008060006060848603121561127e5761127d6116f2565b5b600061128c868287016111ce565b935050602061129d868287016111ce565b92505060406112ae868287016111e3565b9150509250925092565b600080604083850312156112cf576112ce6116f2565b5b60006112dd858286016111ce565b92505060206112ee858286016111e3565b9150509250929050565b60006020828403121561130e5761130d6116f2565b5b600061131c848285016111e3565b91505092915050565b61132e816115da565b82525050565b61133d816115ec565b82525050565b600061134e82611534565b611358818561153f565b935061136881856020860161162f565b611371816116f7565b840191505092915050565b600061138960128361153f565b915061139482611708565b602082019050919050565b60006113ac60108361153f565b91506113b782611731565b602082019050919050565b60006113cf600d8361153f565b91506113da8261175a565b602082019050919050565b60006113f260088361153f565b91506113fd82611783565b602082019050919050565b61141181611618565b82525050565b61142081611622565b82525050565b600060208201905061143b6000830184611325565b92915050565b60006020820190506114566000830184611334565b92915050565b600060208201905081810360008301526114768184611343565b905092915050565b600060208201905081810360008301526114978161137c565b9050919050565b600060208201905081810360008301526114b78161139f565b9050919050565b600060208201905081810360008301526114d7816113c2565b9050919050565b600060208201905081810360008301526114f7816113e5565b9050919050565b60006020820190506115136000830184611408565b92915050565b600060208201905061152e6000830184611417565b92915050565b600081519050919050565b600082825260208201905092915050565b600061155b82611618565b915061156683611618565b9250827fffffffffffffffffffffffffffffffffffffffffffffffffffffffffffffffff0382111561159b5761159a611694565b5b828201905092915050565b60006115b182611618565b91506115bc83611618565b9250828210156115cf576115ce611694565b5b828203905092915050565b60006115e5826115f8565b9050919050565b60008115159050919050565b600073ffffffffffffffffffffffffffffffffffffffff82169050919050565b6000819050919050565b600060ff82169050919050565b60005b8381101561164d578082015181840152602081019050611632565b8381111561165c576000848401525b50505050565b6000600282049050600182168061167a57607f821691505b6020821081141561168e5761168d6116c3565b5b50919050565b7f4e487b7100000000000000000000000000000000000000000000000000000000600052601160045260246000fd5b7f4e487b7100000000000000000000000000000000000000000000000000000000600052602260045260246000fd5b600080fd5b6000601f19601f8301169050919050565b7f6e6f7420656e6f7567682062616c616e63650000000000000000000000000000600082015250565b7f76616c7565206973206772656174657200000000000000000000000000000000600082015250565b7f72657175697265206f776e657200000000000000000000000000000000000000600082015250565b7f72652d656e746572000000000000000000000000000000000000000000000000600082015250565b6117b5816115da565b81146117c057600080fd5b50565b6117cc81611618565b81146117d757600080fd5b5056fea26469706673582212205bc4c55cc2782145aba44e42aeb82f1850ae49dde976c4985fd82dbd20d30a0064736f6c63430008070033",
  "immutableReferences": {},
  "source": "// SPDX-License-Identifier: MIT\npragma solidity >=0.4.22 <=0.9.0;\n\n\ninterface Token {\n    function name() external view returns (string memory);\n\n    function symbol() external view returns (string memory);\n\n    function decimals() external view returns (uint8 );\n      function totalSupply()external  view  returns (uint256);\n\n    function balanceOf(address _owner) external  returns (uint256 balance);\n\n    function transfer(address _from ,address _to, uint256 _value)\n        external\n        returns (uint amount);\n\n    function transferFrom(\n        address _from,\n        address _to,\n        uint256 _value\n    ) external returns (bool success);\n\n    function approve(address _spender, uint256 _value)\n        external\n        returns (bool success);\n\n    function allowance(address _owner, address _spender)\n        external\n        view\n        returns (uint256 remaining);\n\n     event Transfer(address indexed _from, address indexed _to, uint256 _value);\n     event Approval(address indexed _owner, address indexed _spender, uint256 _value);\n     event bal(uint val);\n     event OwnerSet(address indexed oldOwner, address indexed newOwner);\n   \n\n}\n\ncontract Making_token is Token {\n    string private Tname ; \n    uint8  private Tdecimals; \n    string private  Tsymbol  ;\n    uint256 public _totalSupply ;\n    address _owner =msg.sender;\n    mapping(address => uint256) balances;\n    mapping(address=>mapping(address=>uint256))allowed;\n\n\n    modifier Onlyowner{\n        require(msg.sender == _owner,\"require owner\");\n        \n        _;\n    }\n\n\n    constructor(\n        // string memory _name,\n        // string memory _symbol,\n        // uint8 _decimal,\n    \n    ) {\n        Tname =\"rivh\"; \n     Tdecimals = 10; \n      Tsymbol  =\"RXB\";\n     _totalSupply =50000;\n    balances[msg.sender]=_totalSupply;\n        \n        \n    }\n    function name() public override view returns (string memory ){\n                return Tname;\n    }\n\n    function symbol() public override view returns (string memory){\n                return Tsymbol;\n    }\n\n    function decimals() public override view returns (uint8){\n                return Tdecimals;\n    }\n\n    function owner()public view  returns (address){\n                return _owner;\n    }\n\n\n      function totalSupply()public override view  returns (uint256){\n                return _totalSupply;\n    }\n    function balanceOf(address _check_address)\n        public\n        \n        override\n        returns (uint256 balance)\n    {\n        \n        emit bal(balances[_check_address]);\n\n        return balances[_check_address];\n    }\n\n    function transfer(address _from , address _to, uint256 _value)\n        public \n\n        override\n        returns (uint amount)\n    {\n        require(_value <= balances[_from],\"not enough balance\");\n        balances[_from] -= _value;\n        balances[_to] += _value;\n        emit Transfer(_from,_to, _value);\n        return _value;\n    }\n\n    function transferFrom(\n        address _from,\n        address _to,\n        uint256 _value\n    ) public override Onlyowner returns (bool success)\n    {\n\n         require(_value <= allowed[_from][_to],\"value is greater\");\n         require(_value <= balances[_from],\"not enough balance\");\n         allowed[_from][_to]-=_value;\n          balances[_to] += _value;\n         balances[_from] -= _value;\n         emit Transfer( _from,_to, _value);\n\n         return true;\n    }\n\n    function check_balance(address add) public Onlyowner view returns(uint256){\n        return balances[add];\n    }\n\n    function approve(address _spender, uint256 _value)\n        public\n        override\n        Onlyowner\n        returns (bool success)\n        {   \n            //balances[_spender]=_value;\n            allowed[msg.sender][_spender] = _value;\n           emit  Approval( msg.sender, _spender,_value);\n            return true;\n        }\n\n      function allowance(address _approvedBy, address _spender)\n        public \n        override\n        view\n        returns (uint256 remaining)\n        {\n            return allowed[_approvedBy][_spender];\n        }\n        function mint (uint256 tokens) public Onlyowner returns (uint256) {\n           \n            _totalSupply +=tokens;\n            balances[_owner]+=tokens;\n            \n            return balances[_owner];\n        }\n\n        function burn(uint256 tokens)public Onlyowner returns (bool success){\n           \n           require(balanceOf(msg.sender)>=tokens, \"re-enter\");\n           _totalSupply-=tokens;\n           balances[msg.sender] -=tokens;\n           return true;\n        }\n\n        function changeOwner(address newOwner) public Onlyowner returns(bool sucess){\n        \n        _owner = newOwner;\n        emit OwnerSet(_owner, newOwner);\n        return true;\n    }\n\n}\n",
  "sourcePath": "/home/surajkumarprajapati/Documents/blockchain/application/contracts/Making_token.sol",
  "compiler": {
    "name": "solc",
    "version": "0.8.7+commit.e28d00a7.Emscripten.clang"
  },
  "schemaVersion": "3.4.7",
  "updatedAt": "2022-06-21T11:54:02.242Z",
  "devdoc": {
    "kind": "dev",
    "methods": {},
    "version": 1
  },
  "userdoc": {
    "kind": "user",
    "methods": {},
    "version": 1
  }
}