{
  "contractName": "Making_token",
  "abi": [
    {
      "inputs": [],
      "stateMutability": "nonpayable",
      "type": "constructor"
    },
    {
      "anonymous": false,
      "inputs": [
        {
          "indexed": true,
          "internalType": "address",
          "name": "_owner",
          "type": "address"
        },
        {
          "indexed": true,
          "internalType": "address",
          "name": "_spender",
          "type": "address"
        },
        {
          "indexed": false,
          "internalType": "uint256",
          "name": "_value",
          "type": "uint256"
        }
      ],
      "name": "Approval",
      "type": "event"
    },
    {
      "anonymous": false,
      "inputs": [
        {
          "indexed": true,
          "internalType": "address",
          "name": "_from",
          "type": "address"
        },
        {
          "indexed": true,
          "internalType": "address",
          "name": "_to",
          "type": "address"
        },
        {
          "indexed": false,
          "internalType": "uint256",
          "name": "_value",
          "type": "uint256"
        }
      ],
      "name": "Transfer",
      "type": "event"
    },
    {
      "anonymous": false,
      "inputs": [
        {
          "indexed": false,
          "internalType": "uint256",
          "name": "val",
          "type": "uint256"
        }
      ],
      "name": "bal",
      "type": "event"
    },
    {
      "inputs": [],
      "name": "_totalSupply",
      "outputs": [
        {
          "internalType": "uint256",
          "name": "",
          "type": "uint256"
        }
      ],
      "stateMutability": "view",
      "type": "function",
      "constant": true
    },
    {
      "inputs": [],
      "name": "name",
      "outputs": [
        {
          "internalType": "string",
          "name": "",
          "type": "string"
        }
      ],
      "stateMutability": "view",
      "type": "function",
      "constant": true
    },
    {
      "inputs": [],
      "name": "symbol",
      "outputs": [
        {
          "internalType": "string",
          "name": "",
          "type": "string"
        }
      ],
      "stateMutability": "view",
      "type": "function",
      "constant": true
    },
    {
      "inputs": [],
      "name": "decimals",
      "outputs": [
        {
          "internalType": "uint8",
          "name": "",
          "type": "uint8"
        }
      ],
      "stateMutability": "view",
      "type": "function",
      "constant": true
    },
    {
      "inputs": [],
      "name": "owner",
      "outputs": [
        {
          "internalType": "address",
          "name": "",
          "type": "address"
        }
      ],
      "stateMutability": "view",
      "type": "function",
      "constant": true
    },
    {
      "inputs": [],
      "name": "totalSupply",
      "outputs": [
        {
          "internalType": "uint256",
          "name": "",
          "type": "uint256"
        }
      ],
      "stateMutability": "view",
      "type": "function",
      "constant": true
    },
    {
      "inputs": [
        {
          "internalType": "address",
          "name": "_check_address",
          "type": "address"
        }
      ],
      "name": "balanceOf",
      "outputs": [
        {
          "internalType": "uint256",
          "name": "balance",
          "type": "uint256"
        }
      ],
      "stateMutability": "nonpayable",
      "type": "function"
    },
    {
      "inputs": [
        {
          "internalType": "address",
          "name": "_to",
          "type": "address"
        },
        {
          "internalType": "uint256",
          "name": "_value",
          "type": "uint256"
        }
      ],
      "name": "transfer",
      "outputs": [
        {
          "internalType": "uint256",
          "name": "amount",
          "type": "uint256"
        }
      ],
      "stateMutability": "nonpayable",
      "type": "function"
    },
    {
      "inputs": [
        {
          "internalType": "address",
          "name": "_from",
          "type": "address"
        },
        {
          "internalType": "address",
          "name": "_to",
          "type": "address"
        },
        {
          "internalType": "uint256",
          "name": "_value",
          "type": "uint256"
        }
      ],
      "name": "transferFrom",
      "outputs": [
        {
          "internalType": "bool",
          "name": "success",
          "type": "bool"
        }
      ],
      "stateMutability": "nonpayable",
      "type": "function"
    },
    {
      "inputs": [
        {
          "internalType": "address",
          "name": "add",
          "type": "address"
        }
      ],
      "name": "check_balance",
      "outputs": [
        {
          "internalType": "uint256",
          "name": "",
          "type": "uint256"
        }
      ],
      "stateMutability": "view",
      "type": "function",
      "constant": true
    },
    {
      "inputs": [
        {
          "internalType": "address",
          "name": "_spender",
          "type": "address"
        },
        {
          "internalType": "uint256",
          "name": "_value",
          "type": "uint256"
        }
      ],
      "name": "approve",
      "outputs": [
        {
          "internalType": "bool",
          "name": "success",
          "type": "bool"
        }
      ],
      "stateMutability": "nonpayable",
      "type": "function"
    },
    {
      "inputs": [
        {
          "internalType": "address",
          "name": "_approvedBy",
          "type": "address"
        },
        {
          "internalType": "address",
          "name": "_spender",
          "type": "address"
        }
      ],
      "name": "allowance",
      "outputs": [
        {
          "internalType": "uint256",
          "name": "remaining",
          "type": "uint256"
        }
      ],
      "stateMutability": "view",
      "type": "function",
      "constant": true
    },
    {
      "inputs": [
        {
          "internalType": "uint256",
          "name": "tokens",
          "type": "uint256"
        }
      ],
      "name": "mint",
      "outputs": [
        {
          "internalType": "uint256",
          "name": "",
          "type": "uint256"
        }
      ],
      "stateMutability": "nonpayable",
      "type": "function"
    },
    {
      "inputs": [
        {
          "internalType": "uint256",
          "name": "tokens",
          "type": "uint256"
        }
      ],
      "name": "burn",
      "outputs": [
        {
          "internalType": "bool",
          "name": "success",
          "type": "bool"
        }
      ],
      "stateMutability": "nonpayable",
      "type": "function"
    },
    {
      "inputs": [
        {
          "internalType": "uint256",
          "name": "x",
          "type": "uint256"
        },
        {
          "internalType": "uint256",
          "name": "y",
          "type": "uint256"
        }
      ],
      "name": "set",
      "outputs": [
        {
          "internalType": "uint256",
          "name": "",
          "type": "uint256"
        }
      ],
      "stateMutability": "pure",
      "type": "function",
      "constant": true
    }
  ],
  "bytecode": "0x608060405233600460006101000a81548173ffffffffffffffffffffffffffffffffffffffff021916908373ffffffffffffffffffffffffffffffffffffffff1602179055503480156200005257600080fd5b506040518060400160405280600481526020017f726976680000000000000000000000000000000000000000000000000000000081525060009080519060200190620000a092919062000160565b50600a600160006101000a81548160ff021916908360ff1602179055506040518060400160405280600381526020017f5258420000000000000000000000000000000000000000000000000000000000815250600290805190602001906200010a92919062000160565b50611388600381905550600354600560003373ffffffffffffffffffffffffffffffffffffffff1673ffffffffffffffffffffffffffffffffffffffff1681526020019081526020016000208190555062000275565b8280546200016e9062000210565b90600052602060002090601f016020900481019282620001925760008555620001de565b82601f10620001ad57805160ff1916838001178555620001de565b82800160010185558215620001de579182015b82811115620001dd578251825591602001919060010190620001c0565b5b509050620001ed9190620001f1565b5090565b5b808211156200020c576000816000905550600101620001f2565b5090565b600060028204905060018216806200022957607f821691505b6020821081141562000240576200023f62000246565b5b50919050565b7f4e487b7100000000000000000000000000000000000000000000000000000000600052602260045260246000fd5b6116d780620002856000396000f3fe608060405234801561001057600080fd5b50600436106100f55760003560e01c80633eaaf86b1161009757806395d89b411161006657806395d89b41146102b0578063a0712d68146102ce578063a9059cbb146102fe578063dd62ed3e1461032e576100f5565b80633eaaf86b1461021457806342966c681461023257806370a08231146102625780638da5cb5b14610292576100f5565b80631ab06ee5116100d35780631ab06ee51461016657806323b872dd146101965780632aa3e7d7146101c6578063313ce567146101f6576100f5565b806306fdde03146100fa578063095ea7b31461011857806318160ddd14610148575b600080fd5b61010261035e565b60405161010f9190611323565b60405180910390f35b610132600480360381019061012d919061113f565b6103f0565b60405161013f9190611308565b60405180910390f35b610150610572565b60405161015d91906113c5565b60405180910390f35b610180600480360381019061017b91906111ac565b61057c565b60405161018d91906113c5565b60405180910390f35b6101b060048036038101906101ab91906110ec565b610592565b6040516101bd9190611308565b60405180910390f35b6101e060048036038101906101db919061107f565b610914565b6040516101ed91906113c5565b60405180910390f35b6101fe6109ed565b60405161020b91906113e0565b60405180910390f35b61021c610a04565b60405161022991906113c5565b60405180910390f35b61024c6004803603810190610247919061117f565b610a0a565b6040516102599190611308565b60405180910390f35b61027c6004803603810190610277919061107f565b610b5f565b60405161028991906113c5565b60405180910390f35b61029a610c1e565b6040516102a791906112ed565b60405180910390f35b6102b8610c48565b6040516102c59190611323565b60405180910390f35b6102e860048036038101906102e3919061117f565b610cda565b6040516102f591906113c5565b60405180910390f35b6103186004803603810190610313919061113f565b610e66565b60405161032591906113c5565b60405180910390f35b610348600480360381019061034391906110ac565b610fce565b60405161035591906113c5565b60405180910390f35b60606000805461036d90611529565b80601f016020809104026020016040519081016040528092919081815260200182805461039990611529565b80156103e65780601f106103bb576101008083540402835291602001916103e6565b820191906000526020600020905b8154815290600101906020018083116103c957829003601f168201915b5050505050905090565b6000600460009054906101000a900473ffffffffffffffffffffffffffffffffffffffff1673ffffffffffffffffffffffffffffffffffffffff163373ffffffffffffffffffffffffffffffffffffffff1614610482576040517f08c379a000000000000000000000000000000000000000000000000000000000815260040161047990611385565b60405180910390fd5b81600660003373ffffffffffffffffffffffffffffffffffffffff1673ffffffffffffffffffffffffffffffffffffffff16815260200190815260200160002060008573ffffffffffffffffffffffffffffffffffffffff1673ffffffffffffffffffffffffffffffffffffffff168152602001908152602001600020819055508273ffffffffffffffffffffffffffffffffffffffff163373ffffffffffffffffffffffffffffffffffffffff167f8c5be1e5ebec7d5bd14f71427d1e84f3dd0314c0f7b2291e5b200ac8c7c3b9258460405161056091906113c5565b60405180910390a36001905092915050565b6000600354905090565b6000818361058a9190611417565b905092915050565b6000600460009054906101000a900473ffffffffffffffffffffffffffffffffffffffff1673ffffffffffffffffffffffffffffffffffffffff163373ffffffffffffffffffffffffffffffffffffffff1614610624576040517f08c379a000000000000000000000000000000000000000000000000000000000815260040161061b90611385565b60405180910390fd5b600660008573ffffffffffffffffffffffffffffffffffffffff1673ffffffffffffffffffffffffffffffffffffffff16815260200190815260200160002060008473ffffffffffffffffffffffffffffffffffffffff1673ffffffffffffffffffffffffffffffffffffffff168152602001908152602001600020548211156106e3576040517f08c379a00000000000000000000000000000000000000000000000000000000081526004016106da90611365565b60405180910390fd5b600560008573ffffffffffffffffffffffffffffffffffffffff1673ffffffffffffffffffffffffffffffffffffffff16815260200190815260200160002054821115610765576040517f08c379a000000000000000000000000000000000000000000000000000000000815260040161075c90611345565b60405180910390fd5b81600660008673ffffffffffffffffffffffffffffffffffffffff1673ffffffffffffffffffffffffffffffffffffffff16815260200190815260200160002060008573ffffffffffffffffffffffffffffffffffffffff1673ffffffffffffffffffffffffffffffffffffffff16815260200190815260200160002060008282546107f1919061146d565b9250508190555081600560008573ffffffffffffffffffffffffffffffffffffffff1673ffffffffffffffffffffffffffffffffffffffff16815260200190815260200160002060008282546108479190611417565b9250508190555081600560008673ffffffffffffffffffffffffffffffffffffffff1673ffffffffffffffffffffffffffffffffffffffff168152602001908152602001600020600082825461089d919061146d565b925050819055508273ffffffffffffffffffffffffffffffffffffffff168473ffffffffffffffffffffffffffffffffffffffff167fddf252ad1be2c89b69c2b068fc378daa952ba7f163c4a11628f55a4df523b3ef8460405161090191906113c5565b60405180910390a3600190509392505050565b6000600460009054906101000a900473ffffffffffffffffffffffffffffffffffffffff1673ffffffffffffffffffffffffffffffffffffffff163373ffffffffffffffffffffffffffffffffffffffff16146109a6576040517f08c379a000000000000000000000000000000000000000000000000000000000815260040161099d90611385565b60405180910390fd5b600560008373ffffffffffffffffffffffffffffffffffffffff1673ffffffffffffffffffffffffffffffffffffffff168152602001908152602001600020549050919050565b6000600160009054906101000a900460ff16905090565b60035481565b6000600460009054906101000a900473ffffffffffffffffffffffffffffffffffffffff1673ffffffffffffffffffffffffffffffffffffffff163373ffffffffffffffffffffffffffffffffffffffff1614610a9c576040517f08c379a0000000000000000000000000000000000000000000000000000000008152600401610a9390611385565b60405180910390fd5b81610aa633610b5f565b1015610ae7576040517f08c379a0000000000000000000000000000000000000000000000000000000008152600401610ade906113a5565b60405180910390fd5b8160036000828254610af9919061146d565b9250508190555081600560003373ffffffffffffffffffffffffffffffffffffffff1673ffffffffffffffffffffffffffffffffffffffff1681526020019081526020016000206000828254610b4f919061146d565b9250508190555060019050919050565b60007f08c3e05c224ebb0c44cd290636a7545ef9c2f1b02e8eed14803efb1c66c028c5600560008473ffffffffffffffffffffffffffffffffffffffff1673ffffffffffffffffffffffffffffffffffffffff16815260200190815260200160002054604051610bcf91906113c5565b60405180910390a1600560008373ffffffffffffffffffffffffffffffffffffffff1673ffffffffffffffffffffffffffffffffffffffff168152602001908152602001600020549050919050565b6000600460009054906101000a900473ffffffffffffffffffffffffffffffffffffffff16905090565b606060028054610c5790611529565b80601f0160208091040260200160405190810160405280929190818152602001828054610c8390611529565b8015610cd05780601f10610ca557610100808354040283529160200191610cd0565b820191906000526020600020905b815481529060010190602001808311610cb357829003601f168201915b5050505050905090565b6000600460009054906101000a900473ffffffffffffffffffffffffffffffffffffffff1673ffffffffffffffffffffffffffffffffffffffff163373ffffffffffffffffffffffffffffffffffffffff1614610d6c576040517f08c379a0000000000000000000000000000000000000000000000000000000008152600401610d6390611385565b60405180910390fd5b8160036000828254610d7e9190611417565b925050819055508160056000600460009054906101000a900473ffffffffffffffffffffffffffffffffffffffff1673ffffffffffffffffffffffffffffffffffffffff1673ffffffffffffffffffffffffffffffffffffffff1681526020019081526020016000206000828254610df69190611417565b9250508190555060056000600460009054906101000a900473ffffffffffffffffffffffffffffffffffffffff1673ffffffffffffffffffffffffffffffffffffffff1673ffffffffffffffffffffffffffffffffffffffff168152602001908152602001600020549050919050565b600081600560003373ffffffffffffffffffffffffffffffffffffffff1673ffffffffffffffffffffffffffffffffffffffff168152602001908152602001600020541015610eb457600080fd5b81600560003373ffffffffffffffffffffffffffffffffffffffff1673ffffffffffffffffffffffffffffffffffffffff1681526020019081526020016000206000828254610f03919061146d565b9250508190555081600560008573ffffffffffffffffffffffffffffffffffffffff1673ffffffffffffffffffffffffffffffffffffffff1681526020019081526020016000206000828254610f599190611417565b925050819055508273ffffffffffffffffffffffffffffffffffffffff163373ffffffffffffffffffffffffffffffffffffffff167fddf252ad1be2c89b69c2b068fc378daa952ba7f163c4a11628f55a4df523b3ef84604051610fbd91906113c5565b60405180910390a381905092915050565b6000600660008473ffffffffffffffffffffffffffffffffffffffff1673ffffffffffffffffffffffffffffffffffffffff16815260200190815260200160002060008373ffffffffffffffffffffffffffffffffffffffff1673ffffffffffffffffffffffffffffffffffffffff16815260200190815260200160002054905092915050565b60008135905061106481611673565b92915050565b6000813590506110798161168a565b92915050565b600060208284031215611095576110946115b9565b5b60006110a384828501611055565b91505092915050565b600080604083850312156110c3576110c26115b9565b5b60006110d185828601611055565b92505060206110e285828601611055565b9150509250929050565b600080600060608486031215611105576111046115b9565b5b600061111386828701611055565b935050602061112486828701611055565b92505060406111358682870161106a565b9150509250925092565b60008060408385031215611156576111556115b9565b5b600061116485828601611055565b92505060206111758582860161106a565b9150509250929050565b600060208284031215611195576111946115b9565b5b60006111a38482850161106a565b91505092915050565b600080604083850312156111c3576111c26115b9565b5b60006111d18582860161106a565b92505060206111e28582860161106a565b9150509250929050565b6111f5816114a1565b82525050565b611204816114b3565b82525050565b6000611215826113fb565b61121f8185611406565b935061122f8185602086016114f6565b611238816115be565b840191505092915050565b6000611250601283611406565b915061125b826115cf565b602082019050919050565b6000611273601083611406565b915061127e826115f8565b602082019050919050565b6000611296600d83611406565b91506112a182611621565b602082019050919050565b60006112b9600883611406565b91506112c48261164a565b602082019050919050565b6112d8816114df565b82525050565b6112e7816114e9565b82525050565b600060208201905061130260008301846111ec565b92915050565b600060208201905061131d60008301846111fb565b92915050565b6000602082019050818103600083015261133d818461120a565b905092915050565b6000602082019050818103600083015261135e81611243565b9050919050565b6000602082019050818103600083015261137e81611266565b9050919050565b6000602082019050818103600083015261139e81611289565b9050919050565b600060208201905081810360008301526113be816112ac565b9050919050565b60006020820190506113da60008301846112cf565b92915050565b60006020820190506113f560008301846112de565b92915050565b600081519050919050565b600082825260208201905092915050565b6000611422826114df565b915061142d836114df565b9250827fffffffffffffffffffffffffffffffffffffffffffffffffffffffffffffffff038211156114625761146161155b565b5b828201905092915050565b6000611478826114df565b9150611483836114df565b9250828210156114965761149561155b565b5b828203905092915050565b60006114ac826114bf565b9050919050565b60008115159050919050565b600073ffffffffffffffffffffffffffffffffffffffff82169050919050565b6000819050919050565b600060ff82169050919050565b60005b838110156115145780820151818401526020810190506114f9565b83811115611523576000848401525b50505050565b6000600282049050600182168061154157607f821691505b602082108114156115555761155461158a565b5b50919050565b7f4e487b7100000000000000000000000000000000000000000000000000000000600052601160045260246000fd5b7f4e487b7100000000000000000000000000000000000000000000000000000000600052602260045260246000fd5b600080fd5b6000601f19601f8301169050919050565b7f6e6f7420656e6f7567682062616c616e63650000000000000000000000000000600082015250565b7f76616c7565206973206772656174657200000000000000000000000000000000600082015250565b7f72657175697265206f776e657200000000000000000000000000000000000000600082015250565b7f72652d656e746572000000000000000000000000000000000000000000000000600082015250565b61167c816114a1565b811461168757600080fd5b50565b611693816114df565b811461169e57600080fd5b5056fea2646970667358221220d8f28a3b6118eba6b3fef7be681d94b3b526cc39e197a369a1125c47e20a1ce264736f6c63430008070033",
  "immutableReferences": {},
  "source": "// SPDX-License-Identifier: MIT\npragma solidity >=0.4.22 <=0.9.0;\n\n\ninterface Token {\n    function name() external view returns (string memory);\n\n    function symbol() external view returns (string memory);\n\n    function decimals() external view returns (uint8 );\n      function totalSupply()external  view  returns (uint256);\n\n    function balanceOf(address _owner) external  returns (uint256 balance);\n\n    function transfer(address _to, uint256 _value)\n        external\n        returns (uint amount);\n\n    function transferFrom(\n        address _from,\n        address _to,\n        uint256 _value\n    ) external returns (bool success);\n\n    function approve(address _spender, uint256 _value)\n        external\n        returns (bool success);\n\n    function allowance(address _owner, address _spender)\n        external\n        view\n        returns (uint256 remaining);\n\n     event Transfer(address indexed _from, address indexed _to, uint256 _value);\n     event Approval(address indexed _owner, address indexed _spender, uint256 _value);\n     event bal(uint val);\n\n   \n\n}\n\ncontract Making_token is Token {\n    string private Tname ; \n    uint8  private Tdecimals; \n    string private  Tsymbol  ;\n    uint256 public _totalSupply ;\n    address _owner =msg.sender;\n    mapping(address => uint256) balances;\n    mapping(address=>mapping(address=>uint256))allowed;\n\n\n    modifier Onlyowner{\n        require(msg.sender == _owner,\"require owner\");\n        \n        _;\n    }\n\n\n    constructor(\n        // string memory _name,\n        // string memory _symbol,\n        // uint8 _decimal,\n    \n    ) {\n        Tname =\"rivh\"; \n     Tdecimals = 10; \n      Tsymbol  =\"RXB\";\n     _totalSupply =5000;\n    balances[msg.sender]=_totalSupply;\n        \n        \n    }\n    function name() public override view returns (string memory ){\n                return Tname;\n    }\n\n    function symbol() public override view returns (string memory){\n                return Tsymbol;\n    }\n\n    function decimals() public override view returns (uint8){\n                return Tdecimals;\n    }\n\n    function owner()public view  returns (address){\n                return _owner;\n    }\n\n\n      function totalSupply()public override view  returns (uint256){\n                return _totalSupply;\n    }\n    function balanceOf(address _check_address)\n        public\n        \n        override\n        returns (uint256 balance)\n    {\n        \n        emit bal(balances[_check_address]);\n\n        return balances[_check_address];\n    }\n\n    function transfer(address _to, uint256 _value)\n        public \n\n        override\n        returns (uint amount)\n    {\n        require(balances[msg.sender] >= _value);\n        balances[msg.sender] -= _value;\n        balances[_to] += _value;\n        emit Transfer(msg.sender,_to, _value);\n        return _value;\n    }\n\n    function transferFrom(\n        address _from,\n        address _to,\n        uint256 _value\n    ) public override Onlyowner returns (bool success)\n    {\n\n         require(_value <= allowed[_from][_to],\"value is greater\");\n         require(_value <= balances[_from],\"not enough balance\");\n         allowed[_from][_to]-=_value;\n          balances[_to] += _value;\n         balances[_from] -= _value;\n         emit Transfer( _from,_to, _value);\n\n         return true;\n    }\n\n    function check_balance(address add) public Onlyowner view returns(uint256){\n        return balances[add];\n    }\n\n    function approve(address _spender, uint256 _value)\n        public\n        override\n        Onlyowner\n        returns (bool success)\n        {   \n            //balances[_spender]=_value;\n            allowed[msg.sender][_spender] = _value;\n           emit  Approval( msg.sender, _spender,_value);\n            return true;\n        }\n\n      function allowance(address _approvedBy, address _spender)\n        public \n        override\n        view\n        returns (uint256 remaining)\n        {\n            return allowed[_approvedBy][_spender];\n        }\n        function mint (uint256 tokens) public Onlyowner returns (uint256) {\n           \n            _totalSupply +=tokens;\n            balances[_owner]+=tokens;\n            \n            return balances[_owner];\n        }\n\n        function burn(uint256 tokens)public Onlyowner returns (bool success){\n           \n           require(balanceOf(msg.sender)>=tokens, \"re-enter\");\n           _totalSupply-=tokens;\n           balances[msg.sender] -=tokens;\n           return true;\n        }\n\n        function set(uint x, uint y) public pure returns(uint) {\n\t\treturn x + y;\n\t}\n\n}\n",
  "sourcePath": "/home/surajkumarprajapati/Documents/blockchain/application/contracts/Making_token.sol",
  "compiler": {
    "name": "solc",
    "version": "0.8.7+commit.e28d00a7.Emscripten.clang"
  },
  "schemaVersion": "3.4.7",
  "updatedAt": "2022-06-18T07:15:36.007Z",
  "networkType": "ethereum",
  "devdoc": {
    "kind": "dev",
    "methods": {},
    "version": 1
  },
  "userdoc": {
    "kind": "user",
    "methods": {},
    "version": 1
  }
}